:020000040800F2
:10000000E8080020A9010008B3370008FD2C00080B
:10001000B1370008D7150008613E00080000000055
:10002000000000000000000000000000353900085A
:10003000B517000800000000213900083739000812
:10004000C3010008C3010008C3010008C301000880
:10005000C3010008C3010008C3010008C301000870
:10006000C3010008C3010008C3010008C301000860
:10007000C3010008C3010008C3010008C301000850
:10008000C3010008C3010008C3010008C301000840
:10009000C3010008C3010008C3010008B717000826
:1000A000C3010008C3010008C3010008C301000820
:1000B000C3010008C3010008C3010008C301000810
:1000C000C3010008C3010008C3010008C301000800
:1000D000C3010008C3010008C3010008293E00084D
:1000E000C3010008C3010008C301000800F002F8C2
:1000F00000F04AF80AA090E8000C82448344AAF178
:100100000107DA4501D100F03FF8AFF2090EBAE875
:100110000F0013F0010F18BFFB1A43F0010318473B
:10012000DC8D0000FC8D0000103A24BF78C878C137
:10013000FAD8520724BF30C830C144BF04680C60ED
:10014000704700000023002400250026103A28BF35
:1001500078C1FBD8520728BF30C148BF0B60704739
:10016000662907F04A82642900F0768000207047F3
:100170001FB500F0EFFC04000020002106F00AFA91
:10018000E0601FBD10B510BD00F0E8FD1146FFF79F
:10019000EFFF05F0D9F900F006FE03B4FFF7F2FF18
:1001A00003BC00F049FE00000948804709480047A9
:1001B000FEE7FEE7FEE7FEE7FEE7FEE7FEE7FEE717
:1001C000FEE7FEE704480549054A064B7047000074
:1001D00097390008ED000008E8020020E808002038
:1001E000E8040020E804002010B54C1084EA530411
:1001F00004D54042C1F1000138BF491E1B4204D55D
:100200005242C3F1000338BF5B1E00F078F914F0CE
:10021000804F04D04042C1F1000138BF491E14F0A4
:10022000004F04D05242C3F1000338BF5B1E10BD23
:100230000FB41CB5074B06AA7B446946009005988D
:1002400000F04DFC0020694600F05CFC1CBC5DF831
:1002500014FB0000C90800002DE9F0410646002407
:1002600010687529314616A510D0AFF3008000281C
:1002700002DA404213A507E031688A0701D512A5CA
:1002800002E0490704D511A5012401E0AFF3008085
:1002900000210A2206F1240709E0B0FBF2FCB0FBC2
:1002A000F2F302FB1C00303078541846491C002839
:1002B000F3D123462A463046BDE8F04100F0A1B90B
:1002C000000000002D0000002B00000020000000B6
:1002D0002DE9F0474FF0000A89460446C0F820A0F7
:1002E0002046E1688847002876D0252806D0D4E942
:1002F00001219047206A401C2062F1E7E168204616
:1003000000258847C4F81CA006460027C4F818A09A
:100310002A2E09D0304603F0ADFE38B304EB87082F
:10032000303EC8F8186019E059F8041B204604EB69
:1003300087029161E1688847012F064618D1E0697C
:10034000002820DA25F020051DE0D8F8180000EB81
:10035000800006EB40003038C8F818002046E168FD
:100360008847064603F086FE0028EED1012F0AD00A
:100370002E2E08D12046E16888477F1C0646022FB2
:1003800045F02005C4DBA069002803DA404245F0AF
:100390000105A061E80701D025F01005B6B1A6F16E
:1003A0004100192802D8203645F400654A463146F6
:1003B000204625604D46FFF7D3FE58B1012806D0F0
:1003C000ED1D25F0070000F1080989E704E005F1BB
:1003D000040985E730468AE7206ABDE8F08740EAED
:1003E000010310B59B070FD1042A0DD310C808C90B
:1003F000121F9C42F8D020BA19BA884201D90120B4
:1004000010BD4FF0FF3010BD1AB1D30703D0521CFE
:1004100007E0002010BD10F8013B11F8014B1B1B39
:1004200007D110F8013B11F8014B1B1B01D1921EA3
:10043000F1D1184610BD10B5203AC0F00B80B1E8DC
:100440001850203AA0E81850B1E81850A0E8185009
:10045000BFF4F5AF5FEA027C24BFB1E81850A0E812
:10046000185044BF18C918C0BDE810405FEA827C2C
:1004700024BF51F8043B40F8043B08BF7047D20743
:1004800028BF31F8023B48BF11F8012B28BF20F8E4
:10049000023B48BF00F8012B704702F0FF0343EA1C
:1004A000032242EA024200F034BB4FF0000200B5E2
:1004B000134694469646203922BFA0E80C50A0E887
:1004C0000C50B1F12001BFF4F7AF090728BFA0E835
:1004D0000C5048BF0CC05DF804EB890028BF40F801
:1004E000042B08BF704748BF20F8022B11F0804F43
:1004F00018BF00F8012B704770477047704753EAE8
:10050000020C00F069802DE9F04B4FF00006002B43
:100510001FBFB3FA83F503FA05F424FA05F65E402B
:1005200012BF1643B2FA82F502FA05F4C5F12005AE
:100530001EBF22FA05FC44EA0C04203556EA044C9E
:100540004FEA144418BF641C4FF000084FF0000934
:10055000904271EB030C39D3002919BFB1FA81F72E
:1005600001FA07F6B0FA80F700FA07F6C7F120079C
:100570001EBF20FA07FC46EA0C062037B6FBF4FC47
:10058000A7EB0507103F07F01F0BCBF120060CFA75
:100590000BFB2CFA06F644BFB3460026202FA4BF5F
:1005A0005E464FF0000B5BEA060C08BF4FF0010BF4
:1005B00019EB0B09ABFB027C48EB0608C01B06FBE2
:1005C00002CC0BFB03CC71EB0C01C1E70B460246DE
:1005D00041464846BDE8F08B13B54FF000004FF0A0
:1005E0000001AFF30080BDE81C40704710B500F07B
:1005F000B5FA006810BD10B5044600F0AFFA04600B
:1006000010BD2DE9F0470D4699469246044600F18B
:1006100024080168880604D5E06921F010012160F2
:1006200000E00120A84201DD471B00E00027A1698E
:100630007A1902EB0900081AA0612078C00602D4DA
:100640002046AFF30080002608E0D4E901211AF823
:1006500006009047206A401C761C20624E45F4DB61
:100660002078C0060AD52046AFF3008006E0D4E922
:10067000012130209047206A401C2062381EA7F1DB
:100680000107F4DC07E0D4E9012118F805009047E0
:10069000206A401C2062281EA5F10105F3DC2046DB
:1006A000AFF300802078000602D50220BDE8F08775
:1006B0000120FBE770472DE9FF4F0C461E464FF027
:1006C000FF378BB0D2E90001DDF860800A908A46DE
:1006D000C1F30A5505B93D46002108464FF0000018
:1006E000BAF1000F00F4400005DA00EB80004FF48F
:1006F000400101EA50004FEA9059B9F1010F00DDC5
:10070000B9460A9850EA4A000ED044F61050A5F2B5
:10071000FF3545432F14B8F1000F1ED07542291E36
:100720001EDDC9F100021CE0B8F1010F4FF000001E
:1007300001D0302103E0F24305E02154401CB042D7
:10074000FBDB30460022002121540B99C1F80880C0
:10075000C1E900200FB0BDE8F08FBD1B6D1CDEE7C6
:100760004A4600DA694206A800F082FA06AB93E82E
:10077000070003AB83E8070050460A9900F063FBCB
:100780008DE80700A0F500501F3800900398002D59
:100790000ADD42F21F014A460844002303A90390E0
:1007A000684600F0CCFD09E0A0F500504A461F382D
:1007B000002303A90390684600F0D6FD8DE80700EA
:1007C0000004000C03D04FF0FF30410800E0104659
:1007D000B8F1000F03D00022009215461EE0751EEE
:1007E00005D400F0BFF9303262556D1EF9D5B3461D
:1007F0000122084302D000227F1C04E02078302828
:1008000001D100227F1E002A099784D01DE0112DFE
:1008100007DA00F0A7F9303262556D1C50EA010288
:10082000F5D1084302D00098C8B10EE00021681E3F
:1008300005E0235C625C63542254401E491C8142E3
:10084000F7DBAB46A81B401E0990002004F80B0004
:100850000B98099AC0F80880C0E9002B7AE71126A6
:100860004FF0000857E72DE9F04F88460446D21DA7
:1008700022F0070191B0D1E90001CDE90A0103F0AE
:100880006DFB02460B98C00F01D02D2007E02068B9
:10089000810701D52B2002E0202101EAC000032AB4
:1008A000099001D0072A05DB03464146204600F0A7
:1008B0009FF90BE12078800601D5E06900E0062071
:1008C000B8F1650F814606D0B8F1660F18D0B8F1BF
:1008D000670F70D131E00020B9F1110F009001DBFA
:1008E000112301E009F101030AAA01A90CA8FFF7ED
:1008F000E2FEDDE90C70002609F10105834647E0C0
:1009000001204B4600904FF000470AAA01A90CA80D
:10091000FFF7D1FEDDE90DB00C995D46002610B958
:1009200009F101000D18B9EB050003D4C0F1FF3641
:1009300009F10105A5EB09002BE0B9F1010F01DA7E
:100940004FF001090020B9F1110F0090484601DD78
:10095000112300E003460AAA01A90CA8FFF7ABFE89
:10096000DDE90C704D4600268346207800070AD446
:10097000AB4500DA5D4601A8012D04DD411911F8EF
:10098000011C302907D04F4502DA17F1040F04DAB1
:10099000012082460FE06D1EEEE7002F02DCED1B0A
:1009A0003E4403E0781CA84200DD7D1CB81B00F12A
:1009B000010A4FF000472078000703D4AA4501DB65
:1009C0004FF0FF3A0021B7F1004F0DF143088DF8C9
:1009D000431024D002202B23002F01DA7F422D2345
:1009E0000A21021EA0F1010000DC5FB197FBF1FCBF
:1009F00097FBF1F201FB1C7C17460CF1300C08F858
:100A000001CDEEE7A8F1010003702188090501D5A9
:100A1000452100E06521A0F1010800F8011C0998BA
:100A20000FA9A1EB0807FF1D00B10120411901EB3F
:100A3000EA70A1693844081A401EA0612078C006F7
:100A400002D42046AFF30080099828B1D4E90121EF
:100A50009047206A401C20622078C00622D520469C
:100A6000AFF300801EE0002E04DBB34502DD01A8D9
:100A7000805D00E03020D4E901219047206A401CCD
:100A80002062761CAAF101005FEA000A0AD100F098
:100A900061F8C0680168405CD4E901219047206A90
:100AA000401C2062281EA5F10105DCDC07E0D4E92A
:100AB000012118F8010B9047206A401C2062381E63
:100AC000A7F10107F3DC2046AFF30080032011B04B
:100AD00041E6000001694A1C02610878704700B5D0
:100AE0008FB0CDE901310021059105497944CDE967
:100AF000031011466846FFF7EBFB0FB000BD000086
:100B0000E5FFFFFF0A6802F8010B0A6070474FF02B
:100B100000020429C0F0128010F0030C3FF4C7ACAF
:100B2000CCF1040CBCF1020F18BF00F8012BA8BFD8
:100B300020F8022BA1EB0C01FFF7B9BC5FEAC17CE6
:100B400024BF00F8012B00F8012B48BF00F8012B4F
:100B50007047000000487047A4020020004870471A
:100B60008402002030B5B0F10A024FEA900E71F114
:100B700000034EEA817EB0EB0E0061EB91014FEA7B
:100B8000101E4EEA017E10EB0E0041EB11114FEAF0
:100B9000102E4EEA016E10EB0E0041EB11214FEAD0
:100BA000104E4EEA014E10EB0E0041EB1141401881
:100BB00041F100014FEAD00040EA41704FEAD10113
:100BC00010EB80054FEA810444EA907444EB010481
:100BD0006D1944EB0404521BA3414FF0000348BFBE
:100BE0000A3200D530BD401C41F1000130BD00008B
:100BF0002DE9F0411F46044603260168072A01F447
:100C0000006004DB08B116A505E016A503E008B1F5
:100C100015A500E015A521F010002060A069C01EF8
:100C2000A0610FB1401EA0612046AFF300804FB11C
:100C3000D4E9012138469047206A401C2062C01C3C
:100C4000206206E0206AFAE7D4E9012115F8010BD9
:100C50009047761EF8D22046AFF30080BDE8F081C1
:100C60004E414E006E616E00494E4600696E660050
:100C70002DE9F047814616468AB0354878440DC8BC
:100C80008DE80D0032487844801C03AC0DC884E820
:100C90000D0041F69B300844372190FBF1F290FBA8
:100CA000F1F5A5F1800501FB12041B3C02D564425D
:100CB000012000E00020DFF898A080460027FA44D9
:100CC000AAF1BE0A0EE0E0070AD03246684607EBFA
:100CD000470101230AEB810100F046FB8DE8070084
:100CE00064107F1C002CEED1194F7F44AE3F19E0F9
:100CF000E80715D007EB04100DF1180A90E80E0074
:100D00008AE80E00C068F04201D198190890324676
:100D1000012306A903A800F027FB03AB83E8070023
:100D20006D10641C002DE3D14FF00103324669467B
:100D3000B8F1000F03A802D000F001FB01E000F0C1
:100D400013FBC9E90001C9F808200AB0BDE8F08723
:100D50006482000000487047840200207546FFF757
:100D6000F9FFAE4605006946534620F00700854668
:100D700018B020B5FFF726FABDE820404FF0000676
:100D80004FF000074FF000084FF0000B21F0070173
:100D9000AC46ACE8C009ACE8C009ACE8C009ACE8B6
:100DA000C0098D46704710B50446AFF30080204659
:100DB000BDE81040FFF7F1B94FF0013C50F8042BAB
:100DC00051F8043B9A4221D1A2EB0C03934313EA5E
:100DD000CC1317D150F8042B51F8043B9A4215D18B
:100DE000A2EB0C03934313EACC130BD150F8042B62
:100DF00051F8043B9A4209D1A2EB0C03934313EA46
:100E0000CC13DBD04FF00000704700BFD01A01BAFE
:100E1000B1FA81F101F0180122FA01F0CB40C1F1E1
:100E20002001DBB2C0B2C01A2CFA01F3D11A9143EF
:100E300011EAC311E6D1704701491820ABBEFEE7A5
:100E40002600020070475FEA400C08BF91F0000FD7
:100E50004FEA8C234FEAC12243EA51514FEA1C501A
:100E600018BF00F5F0404FEA300018BF41F00041D4
:100E70005FEA6C5C00F02980BCF1FF3F08BF40F0E6
:100E800080407047130C06BF12044FF0100C4FF057
:100E9000000C130E04BF12020CF1080C130F04BF58
:100EA00012010CF1040C930F04BF92000CF1020C20
:100EB000D30F04BF52000CF1010C11464FF0000299
:100EC000A0F11F00A0EB0C00704711F0004F08BF0D
:100ED000704731F000413FF4D5AF0B0C06BF090459
:100EE0004FF0100C4FF0000C0B0E04BF09020CF178
:100EF000080C0B0F04BF09010CF1040C8B0F04BF8D
:100F000089000CF1020CCB0F04BF49000CF1010C5D
:100F1000CCF12003A0EB0C0022FA03F302FA0CF24E
:100F200041EA030100F10100704720F07F4C80EAA4
:100F3000030023F07F47ACEB070303F57C5300F07D
:100F4000004003F1FF032DE980494FEA154B09B436
:100F50004FEA144325EA0B4E24EA03480FF2042615
:100F600006EB132749083E785FEA320203FB066767
:100F7000C7F5000707FB06F64FEA54374FEAD64697
:100F800006F1020607FB066CCCF1005C4FEA1C4739
:100F90002CEA074C07FB06F40CFB06F504EB1546A0
:100FA0004FEA961634BF00204FF000404FEAD13789
:100FB00006FB07FC4FEA1C4C0CFB0BF7D21B03FB98
:100FC0000CF761EB07010CFB0EF7B0EB074072EB7F
:100FD00017420CFB08F734BFA2EB0742B2EB074203
:100FE00061EB17414FEA0C444FEA910706FB07FCFF
:100FF0004FEA1C4C0CFB0BF7B0EBC74072EB5732BF
:1010000003FB0CF734BFA2EBC742B2EBC74261EB64
:1010100057310CFB0EF7B0EBC70072EB57720CFBAD
:1010200008F734BFA2EBC702B2EBC70261EB5771FE
:10103000039F4FEA816141EA921104EBCC044FEA2D
:10104000D1374FEA826206FB07FC42EA90124FEA70
:1010500080604FEA1C4C0CFB0BF7D21B03FB0CF718
:1010600061EB07010CFB0EF7B0EB074072EB174288
:101070000CFB08F734BFA2EB0742B2EB074261EB6F
:1010800017414FEA8C554FEA910704EB9C2406FB6D
:1010900007FC4FEA1C4C0CFB0BF7B0EBC74072EBA4
:1010A000573203FB0CF734BFA2EBC742B2EBC74287
:1010B00061EB57310CFB0EF7B0EBC70072EB5772C8
:1010C0000CFB08F734BFA2EBC702B2EBC70261EB1F
:1010D000577115EB4C254FEA816141EA92114FEAB5
:1010E00082624FEAD13742EA901206FB07FC44F1D4
:1010F00000044FEA80604FEA1C4C0CFB0BF7D21B3C
:1011000003FB0CF761EB07010CFB0EF7B0EB07409C
:1011100072EB17420CFB08F734BFA2EB0742B2EBAD
:10112000074261EB174115EB1C154FEA813141EA8B
:1011300092414FEA823242EA90424FEA80304FEACF
:101140000C7644F1000448EA03434EEA0B484FF0A2
:10115000000EB2EB080C71EB030724BF6246394660
:101160004EEB0E0E4FF0000B0018524149414BEB75
:101170000B0BB2EB080C71EB03077BF1000B24BFE8
:10118000624639464EEB0E0E4FF0000B00185241EE
:1011900049414BEB0B0BB2EB080C71EB03077BF1F6
:1011A000000B24BF624639464EEB0E0E51EA020791
:1011B00018BF46F0010616EB0E7655F1000254F109
:1011C000000103D5BDE88901BDE80088BDE88901BB
:1011D000BDE80048B619524141EB0101A3F10103FA
:1011E000704780807F7E7D7C7B7A79787776767594
:1011F0007473727171706F6E6E6D6C6C6B6A6A690C
:101200006868676666656464636362616160605FA5
:101210005F5E5E5D5D5C5C5B5B5A5A59595858571E
:101220005756565555555454535352525251515086
:1012300050504F4F4F4E4E4D4D4D4C4C4C4B4B4BD9
:101240004A4A4A494949484848474747474646461F
:10125000454545444444444343434342424242415A
:101260004141002B9C4630D477002BD01CB54FEA6F
:10127000370703B44FF010004FF01001BAF1000F20
:1012800006D0BCF1000FDCBF40F0080040F00801C0
:101290004FF000000FBCBDE810400BF1010BBBF19B
:1012A000010F08BF5FEA170722BF12F1010211F117
:1012B00001014FF0004143F1000300F0004043EA18
:1012C00000007047F9D35708D0E746EA064613F105
:1012D000400F4FEA16461FDD13F1200FDFBF164304
:1012E0000A46002120335B42BED0C3F1200746EA04
:1012F000064602FA07F74FEA164646EA0706C3F122
:10130000200722FA03F201FA07F721FA03F14FF05E
:10131000000342EA0702A7E746EA020646EA064653
:101320004FEA164646EA0106BCBF46EA0646360CB8
:101330004FF000034FF000024FF0000194E72DE959
:10134000804C9A46934670B491E8380007C831EA59
:10135000400C48BF34EA430C03D5FFF7E6FDFFF726
:1013600080FFF0BCBDE8008C2DE9804C9A46934686
:1013700070B491E8380007C810F0804F08BF13F030
:10138000804F03D100F005F8FFF76BFFF0BCBDE81C
:10139000008C20F07F4780EA030023F07F4C07EBAE
:1013A0000C03A3F57C5300F00040A3F1FE0392F080
:1013B000000F00F0B38095F0000F00F077802DE96A
:1013C00001494FEA11404FEA144621EA004800FB68
:1013D00006FC24EA064708FB06F607FB08F800FBB4
:1013E00007F718EB06484CEB164C4FEA124B18EB7C
:1013F00007484FEA15464CEB174022EA0B4E0BFB11
:1014000006FC25EA06470EFB06F607FB0EFE0BFB65
:1014100007F71EEB064E4CEB164C4FF000061EEB8A
:10142000074E4CEB174B18EB0B0840F1000018EB84
:101430000E0B58EB000840F100008F1A4FF000012E
:101440003CBFC943661B14BFB5EB040C00213CBF75
:10145000C943F61B4FEA17444EEA8E0E27EA0445AD
:101460004FEA1C4704FB07622CEA074C05FB07F711
:101470000CFB05F604FB0CFC16EB074642EB17428F
:1014800016EB0C4642EB1C421BEB060658EB020225
:10149000414146EA9E0601D5BDE80189B61952418F
:1014A00041EB0101A3F10103BDE801894FEA1445B5
:1014B0004FEA114724EA054621EA074C05FB07F4E9
:1014C00006FB07F70CFB06F105FB0CFC11EB0741D3
:1014D00044EB17444FEA124711EB0C4144EB1C4418
:1014E00022EA074C05FB07F206FB07F70CFB06F6A2
:1014F00005FB0CFC16EB074642EB174216EB0C46BD
:1015000042EB1C456A1854F1000148BF7047B619F8
:10151000524141EB0101A3F10103704795F0000F27
:1015200037D04FEA11424FEA144721EA024624EA33
:10153000074C02FB07F106FB07F70CFB06F402FB66
:101540000CFC14EB074441EB17414FEA154714EB31
:101550000C4441EB1C4125EA074C02FB07F506FB56
:1015600007F70CFB06F602FB0CFC16EB074645EBF7
:10157000174516EB0C4645EB1C42121951F10001C0
:1015800048BF7047B619524141EB0101A3F1010375
:1015900070474FEA14454FEA114724EA054621EA0D
:1015A000074C05FB07F106FB07F70CFB06F24FF0B3
:1015B000000605FB0CFC12EB074241EB174112EB56
:1015C0000C4251EB1C4148BF7047921841EB01019E
:1015D000A3F101037047FEE72DE9F041A0B03D22E1
:1015E0006A490EA8FEF727FF684810F83D1F8DF8DE
:1015F000751041788DF8761081788DF87710C17864
:101600008DF8781001798DF8791041798DF87A107C
:1016100081798DF87B10C1798DF87C10017A8DF875
:101620007D10407A8DF87E00382212A96846FEF7B8
:1016300002FF0EAC94E80F0002F073F9544D3D2206
:10164000544928600EA8FEF7F6FE524810F83D1FD8
:101650008DF8751041788DF8761081788DF87710B7
:10166000C1788DF8781001798DF8791041798DF86D
:101670007A1081798DF87B10C1798DF87C10017A10
:101680008DF87D10407A8DF87E00382212A96846C8
:10169000FEF7D1FE94E80F0002F043F93E4E3F4AB8
:1016A0004042111F3060081F04F00EF83B4A3A3ADE
:1016B000911E881E01F009FE384A343A911E881E98
:1016C00001F0EAFD3648354C0068A4F1400410F002
:1016D000FF4F01D100212165324905F043FEDFF8BB
:1016E000C880414605F014FD05F0D4FD20651E2894
:1016F00001DD1E2704E06FF01D07B84200DB07463E
:101700002B4827652949006805F02CFE414605F065
:10171000FFFC05F0BFFD6065962801DD962004E022
:101720006FF09501884200DA0846606532683846F5
:10173000296802F097FB0546A064B4F9020005F0A1
:10174000E5FD0646284605F0E1FD216905F078FC37
:101750003246E16B02F0CEFB6064B4F9060005F09E
:10176000D5FD616D02F00AFAE064616C0A1A084462
:101770000A49C4E916201C31081F01F039FDD4E9DB
:10178000160120B0BDE8F04101F048BD90010020F5
:1017900010000020D801002008000020C000002018
:1017A000140000200000A0410000FE42000048425A
:1017B000180000207047202000F08AB872B6FEE7BB
:1017C00010B590F821100022022905D00421816370
:1017D00080F82020012010BD01680B6823F00E0363
:1017E0000B6001680B6823F001030B6090F8403038
:1017F000012404FA03F1C36B596080F8214080F89A
:101800002020104610BD000010B590F821100024D3
:10181000022903D00421816301243DE001680A68A4
:1018200022F00E020A6001680A6822F001020A60D2
:101830001A4A0168914201D1012121E0174A14326C
:10184000914201D110211BE0144A2832914201D16A
:10185000891515E0114A3C32914201D189140FE0FB
:101860000E4A5032914202D14FF4803108E00B4AC7
:101870006432914202D14FF4801101E04FF0807147
:10188000064A083A5160012180F82110002180F8B1
:101890002010416B01B18847204610BD080002406E
:1018A00070B5044600F010F90546601C02D00448EB
:1018B0000078044400F008F9401BA042FAD370BD40
:1018C0001C000020202801D1FFF786BE70470000D1
:1018D000044910B50A68024202D00860FFF7F2FF1F
:1018E00010BD0000140401402DE9F84FDFF8A49169
:1018F0000024A9F1040B23464FF00F0809F1040A54
:10190000ABF1040EBEE00127A7403A40BA4272D1C3
:10191000DFF884C14D68A5EB0C0665452BD00DDCC6
:10192000032D34D005DC35B3012D19D0022D2FD174
:101930001BE0112D16D0122D2AD119E0B6F5881F03
:1019400019D006DCB6F5803F15D0B6F5801F1FD143
:1019500011E0B6F5001F0ED0B6F5041F18D10AE04D
:10196000CB6815E0CB681B1D12E0CB6808330FE095
:10197000CB680C330CE08B682BB1012B4FF00803C4
:1019800003D0476104E0042302E0076100E0002384
:10199000FF2A01D8064601E000F104064FEA84055B
:1019A00001D9A5F12005376808FA05FC27EA0C07DC
:1019B00003FA05F547EA050737604D68ED0060D585
:1019C000364DAE6946F00106AE61AD6924F00306FE
:1019D00005F001050095324D7719BE68A5072D0F5A
:1019E00008FA05FC26EA0C06DFF8B8C0604503D10A
:1019F0004FF0000C17E044E0DFF8ACC0604502D1C6
:101A00004FF0010C0FE0DFF8A4C0604502D14FF0A9
:101A1000020C08E0DFF898C0604502D14FF0030CDB
:101A200001E04FF0040C0CFA05FC4CEA060CC7F878
:101A300008C04D68D9F80060ED024D4601D5164347
:101A400000E096432E604D68DAF80060AD0255461E
:101A500001D5164300E096432E604D68DBF8006028
:101A6000AD035D4601D5164300E096432E604D68F8
:101A7000DEF80060ED03754601D5164300E096439D
:101A80002E60641C0A6832FA04F57FF43CAFBDE8AE
:101A9000F88F0000080401400000111000100240FF
:101AA0000000014000080140000C0140001001400E
:101AB000001401408068084000D0012070470AB13E
:101AC000016170470904FBE7014880687047000026
:101AD0001C00002070B5040025D094F83D000025BE
:101AE00020B984F83C50204600F050F9242084F8B6
:101AF0003D002068016821F0010101602068016853
:101B000041F4004101602068016821F40041016056
:101B100000F0A8FA4D4B6168994201D84C4900E0A9
:101B20004C49884201D2012070BD4B492268B0FB6C
:101B3000F1F1566826F03F060E43566062689A42FD
:101B400006D94FF4967251434FF47A72B1FBF2F119
:101B50002268491C166A26F03F063143116261680B
:101B6000994210D84900401EB0FBF1F2521CC2F35A
:101B70000B02042A01D2042022E0B0FBF1F0401C49
:101B8000C0F30B001CE0A268F2B301EBC10303EB4E
:101B90000116431EB3FBF6F35B1C43F480431B05A5
:101BA00049D092B301EBC10202EB0111401EB0FB20
:101BB000F1F0401CC0F30B0040F4804040F40040C2
:101BC0002168CA694CF6FF739A431043C861D4E98F
:101BD000071001432068026822F0C002114301602F
:101BE000D4E9030101432068826848F2FF339A4335
:101BF00011438160D4E9051001432068C26822F0D6
:101C0000FF021143C16001E00EE016E020680168A8
:101C100041F0010101602564202084F83D00256326
:101C200084F83E50002070BD01EB4106431EB3FB1B
:101C3000F6F35B1CB3E70120C2E701EB4101401E54
:101C4000B0FBF1F0401CC0F30B00B7E7A086010029
:101C500080841E0000093D0040420F002DE9FF4F27
:101C600083B09A46DDE9119793460446DDF840803B
:101C7000FFF72AFF054694F83D0020287FD119235D
:101C8000012240492046009501F0CFF8002876D186
:101C900094F83C00012872D0012084F83C002068B0
:101CA0000168C90703D1016841F0010101602068A2
:101CB000016821F400610160212084F83D0040208A
:101CC00084F83E0000262664C4F82480A4F82A90F4
:101CD000608D20852C48E062CDE9007553465A4658
:101CE0002046049901F022F870B930E02A463946BE
:101CF000204601F03BF958B1206C042804D120683B
:101D0000016841F400710160012007B0BDE8F08F67
:101D1000606A216800780861626A521C6262208DE4
:101D2000401E80B22085618D491E618521684B6906
:101D3000DB435B070BD468B110780861606A401C14
:101D40006062208D401E2085608D401E6085208D44
:101D50000028CBD12A463946204601F03BF800281E
:101D6000CAD154F83D0B016841F400710160202094
:101D700004F81E09E67766770020C6E7FFE7022031
:101D8000C3E70000020010000000FFFF10B586B09E
:101D9000002100910191029103910068134988424A
:101DA00022D1134CA06940F00800A061A0696946E7
:101DB00000F0080004904FF4407000901220019051
:101DC000032003900B48FFF78FFD0B49486840F054
:101DD000E06040F002004860E06940F40010E0611B
:101DE000E06900F40010049006B010BD00540040FB
:101DF00000100240000C01400000014002488168D0
:101E000002781144816070471C000020074810B51B
:101E1000016841F010010160032000F075F80F2007
:101E200000F006F800F024F8002010BD0020024069
:101E300070B50D4D04464FF47A712878B1FBF0F07F
:101E40000A490968B1FBF0F000F0DEFA48B9102C3D
:101E500007D200222146501E00F036F800206C60A8
:101E600070BD012070BD00001C0000202800002073
:101E70000C4808B5816941F001018161816901F077
:101E800001010091C16941F08051C161C0690649F9
:101E900000F080500090486820F0E06040F0007052
:101EA000486008BD0010024000000140002809DB26
:101EB00000F01F02012191404009800000F1E02064
:101EC000C0F8001170470000F0B40E4B1B68C3F35C
:101ED0000223C3F10704042C00D904241D1D072D7F
:101EE00001D2002300E0DB1E012606FA04F56D1E78
:101EF0000D409D409E40761E164045EA0601F0BC0E
:101F000002F040B80CED00E0064A00F0070110684E
:101F10004FF6FF03184040EA0120034908431060D0
:101F2000704700000CED00E00000FA052DE9F047D5
:101F30000D46040067D0DFF81881D8F8000000F0E3
:101F40000700A8420CD2D8F8001021F0070129435D
:101F5000C8F80010D8F8000000F00700A84252D1DD
:101F600020683C4E810712D5400703D5706840F4C5
:101F7000E06070602078000703D5706840F460501E
:101F800070607068A16820F0F000084370602078ED
:101F9000C00727D06068012810D03168022810D00F
:101FA000890700292FDA716821F00301014371606C
:101FB000FFF78AFD074641F288390CE03168890352
:101FC000EFE78901EDE7FFF77FFDC11B494502D926
:101FD0000320BDE8F0877068616800F00C00B0EB8A
:101FE000810FF0D1D8F80010404601F00701A94256
:101FF0000BD9016821F0070129430160006800F056
:102000000700A84201D00120E3E72078400705D56A
:102010007068E16820F4E060084370602078000791
:1020200006D57068216920F4605040EAC1007060F4
:1020300000F038F87168084AC1F30311515CC840D8
:102040000649086006480068FFF7F2FE0020C0E776
:1020500000200240001002404C77000828000020B9
:10206000200000200448054900684968044AC1F37B
:102070000221515CC8407047280000200010024037
:102080005C7700080448054900684968044AC1F3C0
:10209000C221515CC8407047280000200010024057
:1020A0005C7700080E4B59680E4801F00C02042AB8
:1020B00011D0082A0FD10C48C1F38342C903805CB8
:1020C0000AD55968084AC1F34041921E515C054A3D
:1020D0005043B0FBF1F0704704494843704700009B
:1020E0000010024000127A003C77000800093D0011
:1020F0002DE9F84F04006FD02078BE4DC00747D0BF
:102100006868C0F38100012807D06868C0F38100C7
:10211000022809D16868C00306D52868800337D52E
:1021200060680028E7D033E06068B0F5803F0BD0EE
:1021300010B1B0F5A02F11D0286820F480302860AD
:10214000286820F4802002E0286840F4803028606D
:10215000606888B1FFF7B8FC064609E0286840F4DB
:1021600080202860F0E7FFF7AFFC801B642873D85D
:1021700028688003F7D50BE0FFF7A6FC064604E0CD
:10218000FFF7A2FC801B6428F1D828688003F7D4ED
:102190002078DFF8648280074FF0010A4FF00009D1
:1021A00039D5686810F00C0F07D06868C0F381005B
:1021B000022809D16868C00306D42868800714D5AE
:1021C0002069012808D110E02069B0B1C8F800A04A
:1021D000FFF77AFC064605E007E1FFF775FC801B78
:1021E0000228C4D828688007F7D52868616920F0DC
:1021F000F80040EAC10028600DE0C8F80090FFF741
:1022000063FC064604E0FFF75FFC801B022823D82E
:1022100028688007F7D4207800072CD57748A16973
:10222000D9B1C0F800A0FFF74FFC064604E0FFF765
:102230004BFC801B02280FD8686A8007F7D57048CE
:102240004FF4FA510068B0FBF1F0009000BF009825
:10225000411E0091FAD20EE07CE0C0F80090FFF73A
:1022600033FC064604E0FFF72FFC801B022871D8E0
:10227000686A8007F7D4207840075BD5E8690027B3
:10228000C00008D4E86940F08050E861E86901279F
:1022900000F0805000905B480168C90511D40168C6
:1022A000834641F480710160FFF70EFC064604E0AE
:1022B000FFF70AFC801B64284CD8DBF80000C0053F
:1022C000F6D5E06801280AD008B1052813D0286A9D
:1022D00020F001002862286A20F0040002E0286A49
:1022E00040F001002862E06841F2883B88B1FFF7C6
:1022F000EBFB064609E0286A40F004002862EEE79E
:10230000FFF7E2FB811B59455BD8286A8007F7D5A8
:102310000BE0FFF7D9FB064604E0FFF7D5FB811B76
:1023200059454ED8286A8007F7D41FB1E86920F0D4
:102330008050E861E069A8B36968C1F381010229AE
:1023400046D00228484606D0C8F86000FFF7BCFB1C
:10235000044639E035E04746C8F86000FFF7B4FBB3
:10236000064604E0FFF7B0FB801B022829D8286846
:102370008001F7D4206AB0F5803F05D16868A16874
:1023800020F4003008436860D4E908010843696814
:1023900021F4741108436860C7F860A0FFF794FB4C
:1023A000044605E023E0FFF78FFB001B022808D856
:1023B00028688001F7D51AE0FFF786FB001B02288A
:1023C00002D90320BDE8F88F28688001F4D40EE01C
:1023D0000128F7D06868226A00F48031914204D164
:1023E000616A00F47010884201D00120EAE7002001
:1023F000E8E7000000100240000042428004424230
:10240000280000200070004010B5401EB0F1807F11
:1024100001D3012010BD4FF0E02460610F2160174F
:1024200001F0B0FD0020A06107202061002010BD58
:1024300010B590F83C20012A22D0012280F83C20DF
:10244000CA688C6822F4407222434C6822F480628D
:1024500022430C6822F4006222430C6922F4805269
:1024600022434C6922F400522243C969002322F41A
:1024700080420A4301684A6480F83C30002010BD65
:10248000022010BD70B590F83C20012A26D001250D
:1024900080F83C50022280F83D200268536894681E
:1024A00023F070060B68334353600D4B02689A4269
:1024B00008D0B2F1804F05D00A4B9A4202D00A4BA5
:1024C0009A4204D1496824F080031943916080F84E
:1024D0003D50002180F83C10084670BD022070BDC0
:1024E000002C014000040040000800402DE9F041AC
:1024F0000D46040003D094F83D0018B108E0012017
:10250000BDE8F081002084F83C00204600F040F84F
:10251000022084F83D002068816844F2070291435C
:102520008160211D206801F037FA20688168826986
:10253000066A2B68AF690B4340F203318A4342EAD3
:102540000722A968EF6911434FF6FC429143EA68FC
:1025500041EA07210A4329692F6A090141EA073143
:1025600011436A686D6926F0220646EA05152A437A
:1025700083602068816154F8460B0262012004F8F0
:102580001F09E0752076E0762077A0750020B7E778
:1025900000B585B00021009101910291039101687D
:1025A0001948B1F1804F1AD0184A914215D1C1692A
:1025B00041F00401C161C16901F004010491816924
:1025C00041F0080181618069694600F008000490CB
:1025D000C02000900E48FFF787F905B000BDC16923
:1025E00041F00101C161C16901F0010104918169FA
:1025F00041F0040181618069694600F004000490A3
:10260000032000900348E6E7001002400008004065
:10261000000C01400008014070B590F83E5004469F
:1026200090F83F3090F8422090F84300022621B104
:1026300004290BD0012D16D10FE0012D13D1012A51
:1026400011D184F83E6084F8426016E0012B0AD173
:10265000012808D184F83F600DE0012B03D1012A45
:1026600001D1012801D0012070BD84F83E6084F8BA
:102670003F6084F8426084F8436091B1042904D03B
:1026800001220021206801F0C3F901220421206801
:1026900001F0BEF92068016841F0010101600020ED
:1026A00070BD012200212068F2E7000000B585B06E
:1026B0000021009101910291039100680B49884229
:1026C00012D10B48816941F004018161806969463A
:1026D00000F0040004904FF410600090022001907C
:1026E00003900448FFF700F905B000BD002C01403D
:1026F000001002400008014070B5044690F83C000C
:1027000000260D4601280FD0012084F83C006AB154
:10271000042A1DD0082A2FD00C2A3FD001260020E1
:1027200084F83C00304670BD022070BD206801F086
:102730007DF92068816941F0080181612068816923
:1027400021F004018161206881692A69114311E047
:10275000206801F097F92068816941F40061816186
:102760002068816921F480618161206881692A691A
:1027700041EA02218161D2E7206801F0B1F92068C5
:10278000C16941F00801C1612068C16921F00401FB
:10279000C1612068C1692A69114311E0206801F014
:1027A000CBF92068C16941F40061C1612068C16949
:1027B00021F48061C1612068C1692A6941EA02216E
:1027C000C161ACE710B5040003D094F83D0010B12E
:1027D00007E0012010BD002084F83C00204600F0F6
:1027E0001FF8022084F83D00211D206801F0D4F874
:1027F000012084F8460084F83E0084F83F0084F805
:10280000400084F8410084F8420084F8430084F8D2
:10281000440084F8450084F83D00002010BD00000D
:1028200008B500680649884208D10648816941F424
:1028300000618161806900F40060009008BD0000C3
:10284000002C01400010024010B5044649B1042993
:102850000AD008290BD094F8410001280AD00120A1
:1028600010BD94F83E00F8E794F83F00F5E794F8BF
:102870004000F2E7022041B3042929D008292AD0D8
:1028800084F841000122206801F0C2F81349206851
:10289000884203D1426C42F400424264206888427C
:1028A00008D0B0F1804F05D00D49884202D00D49C3
:1028B000884204D1816801F00701062903D001682C
:1028C00041F001010160002010BD84F83E00D9E70D
:1028D00084F83F00D6E784F84000D3E7002C01409D
:1028E000000400400008004070477047F8B50168D8
:1028F00004460868CA684B6910F00F0F4FF00005D6
:1029000059D003F0010602F49077374365D0C10730
:1029100005D0D10503D5616C41F001016164410727
:1029200005D5D90703D0616C41F0020161648107CC
:1029300005D5D90703D0616C41F00401616401073A
:1029400007D502F02001314303D0616C41F008014A
:102950006164616C00293AD0800604D5900602D5E6
:10296000204601F050F920684069616CC0F3801086
:10297000090700D460B3204601F01EF920684069C1
:10298000400621D52068143050E8001F21F0400196
:1029900040E80012002AF5D1E06BA8B16D4941630F
:1029A000E06BFEF731FF002811D0E06B416B01B006
:1029B000BDE8F040084783060FD593060DD52046A5
:1029C000BDE8F84001F01FB92046FFF78EFFF8BDC3
:1029D0002046FFF78AFF6564F8BD266B2023012E91
:1029E0007CD1C6067AD5D60678D5086848680090A6
:1029F00048694FF00206400640D5E16B0868406820
:102A00000004000CE8D0A28D8242E5D9E0858869F7
:102A100020282DD020680C3050E8001F21F4807150
:102A200040E80012002AF5D12068143050E8001F59
:102A300021F0010140E80012002AF5D1206814308D
:102A400050E8001F21F0400140E80012002AF5D1B3
:102A500084F84230256320680C3050E8001F21F0D4
:102A6000100140E80012002AF5D1E06BFEF7A8FE45
:102A70006663A08DE18D401A81B22AE0A08DE18DC0
:102A8000401A81B2E08D0028A6D00029A4D0206889
:102A90000C3050E8002F22F4907240E80027002FFD
:102AA000F5D12068143050E8002F22F0010240E8F0
:102AB0000027002FF5D184F84230256320680C30C0
:102AC00050E8002F22F0100240E80023002BF5D13F
:102AD00066632046FFF708FFF8BDFFE705062BD524
:102AE000150629D594F841002128F5D1A068B0F544
:102AF000805F01D12069B0B1206A411C2162216848
:102B000000784860E08C401E0004000CE084E3D1B3
:102B10002068C16821F08001C1602068C16841F06F
:102B20004001C160D8E7206A0088C0F3080048600F
:102B3000206A801C2062E5E74006CDD55006CBD543
:102B4000CA68204622F04002CA6084F8413000F092
:102B5000D4F8C1E7A93B000870B5040004D094F88C
:102B60004100002510B106E0012070BD84F84050FE
:102B7000204600F023F8242084F841002068C16832
:102B800021F40051C160204601F09EF820680169DF
:102B900021F4904101612068416921F02A014161DD
:102BA0002068C16841F40051C1606564202084F848
:102BB000410084F842006563002070BD30B585B0E7
:102BC00000240094019402940394006818498842F8
:102BD0002CD11848C16941F48021C161C16901F457
:102BE00080210491816941F0080181618069124D61
:102BF00000F0080004904FF48060009002200190E3
:102C00000320039069462846FEF76EFEE814CDE9DE
:102C10000004694628460294FEF766FE002211462B
:102C20002720FFF751F92720FFF740F905B030BD05
:102C30000048004000100240000C014090F8423073
:102C4000202B01D00220704721B11AB10023036369
:102C500001F096B80120704770472DE9F84304460B
:102C600090F841001F4615460E46202802D002204B
:102C7000BDE8F8838EB185B100206064212084F81E
:102C80004100FEF721FFA5848146E584A0684FF04E
:102C90002008B0F5805F02D003E00120E8E720695A
:102CA00010B1354600260EE000250CE080212046BC
:102CB00001F081F8A0B9BDB115F8010B2168486099
:102CC000E08C401EE084E08C4B464FF00002009701
:102CD0000028EBD14FF04001204601F06CF840B1E4
:102CE00084F841800320C3E736F8020BC0F30800E4
:102CF000E4E784F841800020BAE77047FEE7016806
:102D00004A69D24352050FD46FF480624A610021B0
:102D100040F8301F202242738173026942F004029E
:102D20000261017301207047002070472DE9F843CC
:102D3000044600680D46DDE9089701689846164686
:102D400041F4807101604B4600224FF00111204692
:102D5000009700F06AF848B120680068C00502D505
:102D60004FF4007020640320BDE8F883216805F06B
:102D7000FE0008613B464A461549204600F099F896
:102D800088B920684169806900903A4649462046E2
:102D900000F0ECF848B1206C042804D120680168E8
:102DA00041F4007101600120DEE7F5B2B8F1010FD6
:102DB00009D02168300A08613A464946204600F0A9
:102DC000D5F80028E7D1206805610020CCE7000095
:102DD0000200010070B516460D4604461EE020466E
:102DE000FFF78DFF08B1012070BD681C16D0FEF7FB
:102DF0006BFE801BA84200D885B920684069C0439B
:102E000040070BD5002044F8300F20216173A073D8
:102E1000216941F0200121612073E4E720684069C5
:102E2000C0434007DBD4002070BD2DE9F0471E46AB
:102E300090460D460446C1F30747DDF8209026E092
:102E4000701C24D0FEF740FEA0EB0900B04200D871
:102E5000EEB92068012F16D0806925EA0000000431
:102E6000000C12D00020404511D1002044F8300F52
:102E700020216173A073216941F020012161207339
:102E80000120BDE8F0874069E7E70120EBE7206813
:102E9000012F0AD0806925EA00000004000C06D04A
:102EA00000204045CCD00020EBE74069F3E701204B
:102EB000F7E72DE9F047984616460D4604464FF0D1
:102EC00000094FF0200AC1F3074723E0206840695A
:102ED000C043400515D42068016841F400710160C9
:102EE00021686FF480604861C4F8309084F83DA098
:102EF00084F83E90216C41F00401216484F83C90F8
:102F000020E0701C06D0FEF7DFFDA0EB0800B04209
:102F100003D816B1012F1ED020E02068012F14D055
:102F2000806925EA00000004000C17D044F8309FA7
:102F300084F80DA084F80E90216941F020012161F0
:102F400084F80C900120BDE8F087406925EA000074
:102F50000004000CEAD12068406901E02068806923
:102F600025EA00000004000CB0D1ECE770B516466D
:102F70000D4604461EE02046FFF7C1FE08B10120C1
:102F800070BD681C16D0FEF79FFD801BA84200D8BC
:102F900085B920684069C04300060BD5002044F87D
:102FA000300F20216173A073216941F0200121615C
:102FB0002073E4E720684069C0430006DBD40020AA
:102FC00070BD000010B50E4C002208212046FEF70F
:102FD00076FD00F017F8012210212046FEF76FFD64
:102FE00000F010F8002210212046FEF768FD00F0E6
:102FF00009F820460122BDE810400821FEF75FBD18
:10300000000C01400020401CC0B20A28FBD37047CE
:103010000C4800B5816985B041F008018161806983
:10302000694600F0080004901820009003200390E7
:10303000112001900448FEF757FC00F09DF805B000
:1030400000BD000000100240000C014010B50C4C07
:10305000012208212046FEF732FDFFF7D3FF0122AF
:1030600010212046FEF72BFDFFF7CCFF0022102198
:103070002046FEF724FDBDE81040FFF7C3BF000067
:10308000000C01402DE9F0410024134E074625466F
:103090006006040E012210213046FEF710FDFFF7F6
:1030A000B1FF08213046FEF705FD08B1641CE4B20B
:1030B000002210213046FEF702FDFFF7A3FF6D1C32
:1030C000EDB2082DE4D327B1FFF77CFF2046BDE821
:1030D000F081FFF7BBFFF9E7000C014070B5154E1A
:1030E00005460024280601D5012200E0002208211F
:1030F0003046FEF7E4FCFFF785FF01221021304641
:10310000FEF7DDFCFFF77EFF002210213046FEF7C0
:10311000D6FC072C04D1012208213046FEF7CFFC53
:103120006806050EFFF76EFF641CE4B2082CD9D3C5
:1031300070BD0000000C014010B50E4C01220821AA
:103140002046FEF7BCFC012210212046FEF7B7FC0A
:10315000FFF758FF002208212046FEF7B0FCFFF7DA
:1031600051FF002210212046FEF7A9FCBDE81040C7
:10317000FFF748BF000C014010B50A4C002208219F
:103180002046FEF79CFC012210212046FEF797FC0A
:10319000FFF738FF20460122BDE810400821FEF766
:1031A0008EBC0000000C014070B5104D01220821BA
:1031B0002846FEF784FCFFF725FF01221021284650
:1031C000FEF77DFCFFF71EFF08212846FEF772FC84
:1031D00008B1012400E00024002210212846FEF757
:1031E0006EFCFFF70FFF204670BD0000000C014091
:1031F00010B54FF4E15302685C429A4201DD03606E
:1032000002E0A24200DA04600868984201DD0B6027
:1032100010BDA042FCDA0C6010BD00002DE9F041A9
:103220000D461B4E04004FF400514FF4805705D556
:1032300001223046FEF743FC002204E00022304623
:10324000FEF73DFC012239463046FEF738FC002CE3
:1032500000DA64420F4F386804644FF480414C0038
:10326000002D05DD00223046FEF729FC012204E096
:1032700001223046FEF723FC002221463046FEF7AD
:103280001EFC002D00DA6D4238684563BDE8F08110
:10329000000C0140480100207CB514460D4606464E
:1032A0006B4606223B21682000F080F800280BD1F5
:1032B000BDF8001049BA3180BDF8021049BA298022
:1032C000BDF8041049BA21807CBD7CB514460D467A
:1032D00006466B4606224321682000F067F8002866
:1032E0000BD1BDF8001049BA3180BDF8021049BABF
:1032F0002980BDF8041049BA21807CBD10B5FFF7C4
:1033000087FE80216B2000F0BFF86420FEF7C8FA2A
:1033100000216B2000F0B8F8032000F081F80020B5
:1033200000F079F8642000F098F80021382000F0CF
:10333000ABF800216A2000F0A7F80021232000F05C
:10334000A3F88021372000F09FF8752000F011F8D5
:10335000682801D0012010BD01216B2000F094F8F5
:1033600000216C2000F090F8642000F076F8002036
:1033700010BD10B50446FFF7DFFED020FFF7AEFE0C
:10338000FFF712FF2046FFF7A9FEFFF70DFFFFF73B
:10339000D3FED120FFF7A2FEFFF706FF0020FFF7C4
:1033A00071FE0446FFF7E8FE204610BD2DE9F0410E
:1033B0001C4615460F460646FFF7BEFE7006000E79
:1033C000FFF78CFEFFF7F0FE20B1FFF7D5FE0120DE
:1033D000BDE8F0813846FFF781FEFFF7E5FEFFF715
:1033E000ABFE012000EB4600C0B2FFF777FEFFF70F
:1033F000DBFE08E0012D0CD00120FFF743FE6D1E1F
:1034000004F8010BEDB2002DF4D1FFF7B5FE00205A
:10341000DEE70020F1E7C006010E1C2000F034B802
:10342000C006010E1B2000F02FB8BC2801D30121DB
:1034300010E0622801D302210CE02A2801D30321E5
:1034400008E0142801D3042104E00A2801D305214F
:1034500000E006211A2000F017B810B504464FF41A
:103460007A70844201D9044602E0042C00D204247C
:10347000B0FBF4F0401EC1B2192000F005F860085E
:10348000BDE81040FFF7D1BF70B50C460546FFF709
:1034900053FED020FFF722FEFFF786FE50B92846E4
:1034A000FFF71CFEFFF780FE2046FFF717FEFFF731
:1034B0007BFE18B1FFF760FE012070BDFFF75CFED8
:1034C000002070BD2DE9F0411D4616460C4607460A
:1034D000FFF732FE7806000EFFF700FEFFF764FEEE
:1034E00060B92046FFF7FAFDFFF75EFE00240CE00E
:1034F000285DFFF7F3FDFFF757FE20B1FFF73CFE15
:103500000120BDE8F081641CE4B2B442F0D3FFF7BF
:1035100033FE0020F5E7000070B586B00024214896
:103520000094019402940394816941F01001816137
:10353000816901F010010491816941F020018161EC
:10354000816901F020010491816941F004018161E8
:10355000816901F004010491816941F008018161F0
:103560008069114E00F008004FF218050490002207
:1035700029463046FEF7A3FA0220CDE90240009525
:103580000125694601953046FEF7AEF920200090EE
:103590000648CDE9010569463046FEF7A5F906B0B3
:1035A00070BD000000100240000C0140000021101E
:1035B0000D4810B50B4901600C49416000214FF4E2
:1035C00080428160C0E9031241618161C161016291
:1035D000FEF780FA002803D0BDE81040FEF7EEB8F1
:1035E00010BD000000540040F4000020A08601003F
:1035F00010B592B000240F941C2168461094FCF77B
:1036000054FF202107A8FCF750FF25482349C0E9B3
:10361000001441F61F41C0E9024104614461846124
:10362000FFF7D0F808B1FEF7C9F80F940FA91C48AE
:103630001094FEF727FF08B1FEF7C0F86020009055
:103640004FF4E150CDE90104039404940594002261
:10365000694613480694FFF74FF808B1FEF7AEF835
:103660000C2269460E48FFF747F808B1FEF7A6F8A6
:103670000794089409944FF400500A94CDE90B4044
:1036800007A907480E94FEF7D3FE08B1FEF796F897
:103690000348FFF70BF812B010BD0000002C0140EA
:1036A0004801002010B58CB024216846FCF7FDFECF
:1036B0000024154809944FF080410A94C0E9001491
:1036C0004FF6FF71C0E90241046184610320CDE936
:1036D00000040120CDE902040494CDE905400794DB
:1036E000694609480894FEF701FF08B1FEF766F83D
:1036F000099409A904480A94FEF7C4FE002801D0E1
:10370000FEF75CF80CB010BD9001002010B58CB035
:1037100024216846FCF7C9FE002416480994144980
:103720000A94C0E900144FF6FF71C0E90241046138
:1037300084610320CDE900040120CDE90204049452
:10374000CDE90540079469460A480894FEF7CEFE85
:1037500008B1FEF733F8099409A906480A94FEF760
:1037600091FE002801D0FEF729F80CB010BD000032
:1037700000080040D80100200C4810B50A4901603B
:103780004FF416514160002181600C22C160C0E9F4
:1037900004128161C161FFF7DFF9002803D0BDE8A1
:1037A0001040FEF70BB810BD00480040200200207A
:1037B000FEE7FEE770B5002505F1B000C0B200F0ED
:1037C0008BF8002000F088F8102000F085F8002425
:1037D000002000F093F8641CE4B2802CF8D36D1C38
:1037E000EDB2082DE8D370BD10B5C820FEF758F82B
:1037F000BDE8104000F098BB10B50446B031C8B227
:1038000000F06AF8102040EA141000F065F804F0A7
:103810000F00BDE8104000F05FB800002DE9F04156
:10382000203A00240F468046D5B27F2803D90020D5
:103830008F1C8046FFB2102B39460FD0FFF7DCFFFC
:10384000154905EB450001EB4005285D00F056F8F1
:10385000641CE4B2062CF8D3BDE8F081FFF7CCFF7E
:103860000E4E04EB0510305C00F048F8641CE4B226
:10387000082CF6D37F1CF9B24046FFF7BDFF0024A9
:1038800004EB05103044007A00F038F8641CE4B210
:10389000082CF5D3E0E70000647700088C79000875
:1038A0002DE9F041984617460E46044600250DE0E6
:1038B000434631462046FFF7B1FF0834E4B2782C86
:1038C00002D90024B61CF6B26D1CEDB27A5D002A56
:1038D000EED1BDE8F081000001B584B001214FF4C4
:1038E000807204A88DE807000B4600227821024868
:1038F000FEF7B4F905B000BDF400002001B584B0B6
:1039000001214FF4807204A88DE807000B46402285
:1039100078210248FEF7A2F905B000BDF4000020AE
:1039200070470FB40098406A009A002100B25162BB
:1039300004B070477047FEF761BA30B58FB02821E8
:103940006846FCF7B2FD14210AA8FCF7AEFD012081
:10395000010400248DE8130004904FF4E010CDE939
:103960000810022507956846FEF7C2FB08B172B63B
:10397000FEE70F20CDE90A054FF48060CDE90C4049
:1039800002210AA80E94FEF7D1FA002801D072B6DF
:10399000FEE70FB030BD7047F0B50268194C1A4D04
:1039A0001A4E4FF08047A04205D0B84203D0A8423B
:1039B00001D0B04203D122F070034A681A43A042FA
:1039C00005D0B84203D0A84201D0B04203D122F4BE
:1039D0004073CA681A434B6922F080021A4302609E
:1039E0008A68C2620A688262A04201D109690163E1
:1039F000012141610169C90703D0016921F0010179
:103A00000161F0BD002C01400004004000080040AE
:103A100010B501F01F010123046A8B409C4304622E
:103A2000036A8A401343036210BD000030B5026A86
:103A3000036A23F0010303624368846924F0730579
:103A40000C682C4322F002058A682A430C4DA842D8
:103A500006D122F00805CA6842EA050222F00402F3
:103A600007D14D6923F4407345EA03058B6943EAA6
:103A700005034360846149684163026230BD000010
:103A8000002C014030B5036A026A22F01002026283
:103A9000426884690D6824F4E64444EA05248D688C
:103AA00023F0200343EA05130C4DA84206D1CD684C
:103AB00023F0800343EA051323F0400307D14D6947
:103AC00022F4406242EA85028D6942EA8502426040
:103AD000846149688163036230BD0000002C0140AD
:103AE00030B5026A036A23F4807303624368C469D1
:103AF00022F4007224F073050C682C438D6842EAAE
:103B000005220C4DA84206D1CD6822F4006242EA9B
:103B1000052222F4806207D14D6923F4405343EA21
:103B200005138D6943EA05134360C4614968C163A5
:103B3000026230BD002C014030B5046A026A22F4F2
:103B4000805202624268C3690D6823F4E64343EA87
:103B500005238D6824F4005444EA0534064DA84238
:103B600004D14D6922F4804242EA85124260C36169
:103B700049680164046230BD002C014070B5094DF4
:103B80000E46A96A03F0EEFB0446304603F0BEFB86
:103B9000696A03F0E7FB214603F052FABDE8704082
:103BA00003F078BB8000002010B5406A0021C18579
:103BB000C184FEF79AFE10BD01680C3151E8002F58
:103BC00022F4907241E80023002BF5D101681431F2
:103BD00051E8002F22F0010241E80023002BF5D12B
:103BE000016B012909D101680C3151E8002F22F045
:103BF000100241E80023002BF5D1202180F842106B
:103C000000210163704708B590F84210222901D0C5
:103C1000022008BD81684FF48053994201D10269A6
:103C200022B1826A99421BD049B10AE00268816AD6
:103C30005268C2F308020A80816A891C08E001699F
:103C400071B10168496801F07F011170816A491CF6
:103C50008162C18D491E0904090CC18503D01BE096
:103C600001684968F1E70168CA6822F02002CA6069
:103C70000168CA6822F48072CA6001684A6922F049
:103C800001024A61202180F8421000214163026B49
:103C9000012A03D0FEF7E0FF002008BD01630168A0
:103CA0000C3151E8002F22F0100241E80023002BD4
:103CB000F5D101680A68D20602D50A684968009100
:103CC000818DFEF711FEE7E770B5044600680169D3
:103CD000E26821F4405111430161A1682069014368
:103CE000606901432068C26841F20C639A430A4349
:103CF000C26020684169A26921F4407111434161A9
:103D00001E492068884202D1FEF7BCF901E0FEF7A7
:103D1000A9F900EBC00101EB00116068642280008A
:103D2000B1FBF0F3B3FBF2F36FF018067343B1FB92
:103D3000F0F5B1FBF0F605EB8305322303EB051537
:103D4000B5FBF2F5B6FBF2F605F0F00505EB06154E
:103D5000B1FBF0F6B1FBF0F0B0FBF2F06FF0180140
:103D6000484306EB800003EB0010B0FBF2F0216843
:103D700000F00F002844886070BD0000003801404A
:103D800081628285C28500214164222180F842102F
:103D9000016921B10168CA6842F48072CA60016891
:103DA0004A6942F001024A610068C16841F020019D
:103DB000C160002070472DE9F8431F4690460D462C
:103DC0000446089E23E0701C21D0FDF77DFEC01B39
:103DD000B0421AD8CEB12068C168490717D5802DE6
:103DE00015D0402D13D00168C94309070FD40168CD
:103DF0000025406800902046FFF7DEFE0820606442
:103E000084F840500120BDE8F8830320FBE72068D8
:103E1000006835EA000004D000204045D3D00020DF
:103E2000F1E70120F9E7000010B50A48FEF75EFD52
:103E300009480178A52905D1084950F8012F4A60A1
:103E400040680860BDE810400B2203490148FEF7B6
:103E5000F5BE0000200200206802002014000020AF
:103E6000FEE700002DE9F041214C11440E1AE06AF2
:103E700003F04CFA616B0F4603F074FA05463046C6
:103E800003F044FA064639464FF07E5003F040FBFB
:103E9000314603F067FA294603F0D2F803F0FAF945
:103EA000E062216B0546084444F6206120638842A5
:103EB00002DC4942884200DA084620632078012863
:103EC00001D0206B01E00020206303F01FFA216A7B
:103ED00003F048FA0646284603F018FAE16903F0B1
:103EE00041FA314603F0ACF8BDE8F04103F0D2B935
:103EF000800000202DE9F0410A4C0E46074611468D
:103F0000A06903F02FFA05463146384603F0F6FA69
:103F1000616903F027FA294603F092F8BDE8F04101
:103F200003F0B8B980000020FEB50024094F4FF41B
:103F3000807501263819CDE9000601230022782179
:103F400002950548FDF78AFE641CE4B21B2CF1D3F0
:103F5000FEBD00002C000020F4000020490050EAC3
:103F6000C12018BF04204A0D18BF40F0010040F2E4
:103F7000FF72B2EB515F08BF40F00200012808BF9A
:103F8000052070470907090E002804DB00F1E02036
:103F900080F80014704700F00F0000F1E02080F876
:103FA000141D70472DE9F0414F1E00EBC701044678
:103FB000D1E9000115461E4637F006020DD02A460B
:103FC000334602F037FD7F1E04EBC703D3E900231D
:103FD00002F028FB37F00602F1D1022F25D0042F82
:103FE00013D0062F18BFBDE8F0812A46334602F0F1
:103FF00021FDD4E90A2302F015FB2A46334602F0DC
:1040000019FDD4E9082302F00DFB2A46334602F0DD
:1040100011FDD4E9062302F005FB2A46334602F0DF
:1040200009FDD4E9042302F0FDFA2A46334602F0E2
:1040300001FDD4E9022302F0F5FA2A46334602F0E4
:10404000F9FCD4E90023BDE8F04102F0EBBA01220B
:1040500003F007BB02F0E6BA0022134610461146F1
:1040600002F090BB024A0020110703F0FABA0000E8
:1040700001FDFFFF30380A2801D2012070470020DF
:10408000704700002DE9FE4F80460F460025684628
:1040900000F0DAFF00246FF00F0AE946012658F815
:1040A000240057F82410401A00D5404203F02EF99E
:1040B000514603F004FB59F8241011F0FF4F0BD0C8
:1040C00003F026F84FF07E5103F022FA094920F060
:1040D0000040884205DC07E0074908440749884258
:1040E00002D306FA04F00543641C032CD7DB2846F0
:1040F000BDE8FE8F295C0F3E666666C19A99D900BD
:104100002DE9F04D8D4F21F0004A86B005460C4652
:10411000BA452ADBAAEB070028430AD08848824523
:1041200001DC1AD1CDB106B02846BDE8F04DFFF74D
:104130008EBF844A844B284602F07CFC07460E461C
:10414000824A834B2846214602F074FC06B03A4668
:104150003346BDE8F04D02F065BA0120FCF74BFA9A
:1041600006B0BDE8F04DFFF777BF7A48824542DAE6
:10417000BAF1795F0BDA2846FFF7F0FE042808BF92
:10418000FFF770FF284606B02146BDE8F08D2A46AD
:104190000B46104602F04EFC834602466E480E4621
:1041A0000B4606217844FFF7FDFE5A46334602F0DF
:1041B00041FC804669488A465A4633460421784481
:1041C000FFF7F0FE5A46334602F034FC00223B462D
:1041D00002F028FA02460B464046514602F0D2FA57
:1041E0002A46234602F026FC06B02A462346BDE8AE
:1041F000F04D02F017BA284624F0004100223D4657
:104200003B4602F015FD4FF0FF3203F02AFA064656
:10421000024653480F460B4606217844FFF7C2FE7C
:1042200032463B4602F006FCCDE900014D483246DD
:104230003B4604217844FFF7B5FE32463B4602F088
:10424000F9FB00222B4602F0EDF98346029130463D
:10425000394602F079F9804643480D46504517DC4F
:10426000DDE900015A46029B02F08CFA42462B46D9
:1042700002F0E0FB42462B4602F0D4F9012203F0A3
:10428000F0F9304A304B02F0C5FD304A304B4CE07B
:104290004FF0000A52460B46404602F0C3F9CDE902
:1042A000031052462B461046194602F0C3FB324615
:1042B0003B4602F0BDFCDDE9033202F063FA06463C
:1042C0000F46DDE900015A46029B02F05BFA834685
:1042D000009101223046394603F0C3F9194A1A4BBE
:1042E00002F0A6FC06460F4601224046294603F08E
:1042F000B8F95A46009B02F09DFB32463B4602F05D
:1043000089FD06460F4601225046294603F0A9F9C9
:104310000E4DDFF858802A46434602F089FC3246AB
:104320003B4602F085FC2A46434602F081FC002C05
:10433000D8BF81F0004106B0BDE8F08D0000F03F2D
:104340000000F07F075C143326A6913C182D4454DE
:10435000FB21F93F0000E03FD04B0000E64B00009E
:104360005A4B0000704B00003333EF3FFB21E93F15
:104370002DE9F84F04460D4621F0004000917349A5
:10438000814211DC7249884201DC06D12CB1204601
:104390002946BDE8F84FFFF75ABE6E48002DCCBF46
:1043A0006D496E49BDE8F88F6D49814211DD6D4957
:1043B0008142D8BF4FF0FF366DDD20462946FFF71A
:1043C000CDFD042808BFFFF74DFE20462946BDE875
:1043D000F88F6549654F25F00045814233DD64491A
:1043E000814219DD002632464FF08043204629469F
:1043F00002F018F980468A4601222046294603F039
:1044000030F900223B4602F005FD4246534602F0D9
:10441000B9F904460D463EE001260022BA463B4665
:104420002046294602F0FEF880460F4600225346F9
:104430002046294602F0EEFC42463B4602F0A2F935
:1044400004460D4627E04B4981421BDDDFF828A1D9
:104450000226002253462046294602F0EBFA0022AB
:104460003B4602F0DFF880460F46002253462046C6
:10447000294602F0CFFC42463B4602F083F904464F
:104480000D4608E0032622462B4600203B4902F059
:1044900079F904460D4622462B461046194602F08D
:1044A000C9FA8B46824602460B4602F0C3FA07461B
:1044B0000246334888460B4606217844FFF772FDD2
:1044C00052465B4602F0B6FA82462E488B463A4682
:1044D000434605217844FFF765FD3A46434602F01E
:1044E000A9FA02460B46002E504659460CDA02F055
:1044F00099F822462B4602F09DFA01B022462B463F
:10450000BDE8F04F02F094BB02F08CF822462B4637
:1045100002F090FA1C4A7A4402EBC603D3E9002366
:1045200002F078FC22462B4602F074FC174A7A44CB
:1045300002EBC603D3E9002302F07AFB009A002ABB
:10454000B8BF81F00041BDE8F88F000000001044C2
:104550000000F07F182D4454FB21F93FFB21F9BFE7
:104560000000DC3F0000203E0000F33F0000F03F71
:104570000000E63F008003400000F83F0000F0BF6D
:104580007249000030490000CE4800009648000003
:104590002DE9F04D9446CCF1000423F000464CEA9E
:1045A0000404524F46EAD4749A46884621F00042E9
:1045B000BC4206D8454240EA050442EAD474BC42F3
:1045C00004D9BDE8F04D6246FFF744BDAAF140555D
:1045D000A5F17F6555EA0C040BD0022404EAAA7405
:1045E000434DDFF810E144EAD87452EA000B04D0DE
:1045F0000CE0BDE8F04DFFF7BBBE002C14BF012C52
:10460000BDE8F08D022C30D0032C32D056EA0C0BD2
:104610000AD0BE4220D1BA4209D126F0804622F00B
:1046200080423346114617E000291ADB25E0DFF807
:10463000C8B0FB44002C04BFDBE90001BDE8F08DED
:10464000012C02BFDBE9000181F00041BDE8F08DE3
:10465000022C0AD0032C0CD0BA4212D1B8F1000FB0
:104660000BDA23482549BDE8F08D28462449BDE8EA
:10467000F08D28467146BDE8F08D1D482149BDE802
:10468000F08D921B12153C2AC4BF19481D490EDC3F
:10469000BAF1000FBEBF12F13C0F0020014606DB4D
:1046A000624602F06FF821F00041FFF761FE002C36
:1046B00008BFBDE8F08D012C04BF81F00041BDE8CA
:1046C000F08D114A114B022C07D002F0A3FB2A46B1
:1046D000BDE8F04D0A4B02F09DBB02F09BFB2A4661
:1046E000BDE8F04D064B02F0A3BA00000000F07FD9
:1046F000182D4454FB2109C02A480000FB21F9BFB2
:10470000FB210940FB21F93F075C143326A6A13C9D
:1047100008B560B120208DF8000028208DF8010038
:1047200030208DF8020038208DF8030004E0A32229
:1047300004216846FBF7B1FE6A46042140F69E203C
:1047400001F06EFE01F032FB08BD00003EB50446EC
:1047500002208DF80000CA208DF80100E3208DF8BA
:10476000020009208DF803006A460421682001F048
:1047700057FEA3208DF80000610609D5C0218DF8F1
:104780000110C8218DF80210C2218DF8031005E038
:104790008DF801008DF802008DF8030014F4C07F3D
:1047A00009D0C4218DF80410CC218DF80510C62144
:1047B0008DF8061005E08DF804008DF805008DF8E1
:1047C00006008DF808008DF807008DF809006A468C
:1047D0000A2140F6A72001F023FEA0074FF0D805DC
:1047E00003D020208DF8000001E08DF800506A46CB
:1047F000012140F6B62001F013FEA00601D50120EC
:1048000000E0002000F090F814F4C07F1ED0E00516
:104810000AD5B2208DF800008B208DF80100B6205B
:104820008DF802009B2009E0B0208DF80000802068
:104830008DF80100B4208DF8020090208DF803005F
:104840006A46042140F6A22001F0EAFDE0074FF499
:104850000B6323D0F8208DF800006A46012118462A
:1048600001F0DEFDFA21072000F03AFB072000F0FE
:1048700005FB012000F022FB642000F0C5FB4FF493
:10488000FA7000F0D1FBC821254800F0BFFA2820BB
:1048900000F0D4FA0A2000F0E1FA06E08DF80050AA
:1048A0006A460121184601F0BBFDA00703D5D920B7
:1048B0008DF8000001E08DF800506A46012140F2B9
:1048C0003D7001F0ADFD600701D5012000E0002042
:1048D00000F046F8E00601D5012000E00020FFF7D7
:1048E00017FF104D44F00800688101F05FFA0020C6
:1048F000A873600601D50620A87314F4C07F02D007
:10490000A87B801DA87314F0140F02D0A87B103070
:10491000A873A00702D0A87B001DA87300203EBD8D
:1049200009E3CA02740200200EB54FF4976308B180
:1049300005A000E007A007C88DE807006A46092126
:10494000184601F06DFD0EBDB8AAB38DB4980D35B3
:104950005D000000B8AAAAAAB088C3C5C7000000BD
:1049600008B560B1C0208DF80000C2208DF80100AC
:10497000C4208DF80200C6208DF8030004E08B22CD
:1049800004216846FBF789FD6A46042140F6982019
:1049900001F046FD01F00AFA08BD0000C8234FF4FB
:1049A0008062024940F6F63001F0E0B87C810008F0
:1049B0002DE9FF4F89B01646DDE916520024DFF8D5
:1049C00034810F4681462C80A24698F80E00694635
:1049D00001F07AF94FF0FF3B18B158460DB0BDE831
:1049E000F08FB8F80A0010F0140F3CD0009909BA03
:1049F00021F0FF0C9DF803104CEA010CC6F800C032
:104A0000019909BA21F0FF039DF807100B43736069
:104A100002999DF80B2009BA21F0FF011143B16002
:104A2000039A9DF80F4012BA22F0FF022243F2606F
:104A30004FEA2C4609141B1412147643494303FB16
:104A4000036302FB021119441024A1F17061B1F15A
:104A5000007F04D901F0AAF9A5F800A0BDE72988D4
:104A600041F48071298041066A460ED51119A41DB2
:104A70000B885BBA3B804B885BBA7B80898849BADC
:104A8000B980298841F00801298010F4C07F11D035
:104A90001119A41D0B885BBAA9F800304B885BBACA
:104AA000A9F80230898849BAA9F80410298841F088
:104AB00070012980800718D01444E07800F0C00508
:104AC00000F03F016078C00707D0C80801F0070177
:104AD000D8F80020491C02B190476078000704D53F
:104AE000D8F8041009B1A80988470C9800F0BEFD59
:104AF000002073E7740200202DE9FF41044603A85B
:104B000000F01CFFBDF80C00420CC3032F480189C4
:104B100001F003004D0754F8200000D54042C1F3D6
:104B2000C1058E0654F8255000D56D42C1F381169B
:104B3000C90554F8264000D56442A0FB0367C1179D
:104B400001FB037100FB0210810041EA9670A5FB96
:104B50000367E91701FB037105FB02118D0045EAAC
:104B60009671A4FB0367E51705FB037304FB023290
:104B7000930043EA9672030E8DF80030030C8DF813
:104B80000130030A8DF802308DF80300080E8DF80D
:104B90000400080C8DF80500080A8DF80600100EB8
:104BA0008DF80800100C8DF80900100A8DF80A0025
:104BB0008DF807108DF80B206A460C214FF42570F4
:104BC00001F02EFC04B0BDE8F0810000740200206A
:104BD00030B5044613A185B007C98DE807004FF032
:104BE000FF35C82C16D8C820B0FBF4F1491E080ABE
:104BF0008DF80C008DF80D1003AA022140F216204A
:104C000001F00EFC30B96A460C2140F6C12001F0DB
:104C100007FC10B1284605B030BD0548848100204E
:104C2000F9E70000FEF2ABC4AAF1DFDFBBAFDFDFC4
:104C300074020020F8B53049098901F0030250F8E8
:104C400022404A0700D56442C1F3C10250F8223025
:104C50008A0600D55B42C1F3811250F82220C805B4
:104C600000D55242254984FB0140850045EA9470F5
:104C700083FB014382FB0121950F45EA8105010E6B
:104C80008DF80010010C8DF80110010A8DF802104A
:104C9000A40F8DF8030044EA83046A4604214FF40C
:104CA000747001F0BDFB4FF0FF3688B9200E8DF80F
:104CB0000000200C8DF80100200A8DF802008DF80C
:104CC00003406A4604214FF4757001F0A9FB08B156
:104CD0003046F8BD280E8DF80000280C8DF8010034
:104CE000280A8DF802008DF803506A4604214FF41B
:104CF000767001F095FBF8BD7402002009E3CA024A
:104D00002DE9FF4104463CA002AB006802903BA0A5
:104D1000006803903AA006683AA0056804F0030012
:104D2000195C8DF80010C4F3C1015A5C8DF80120A4
:104D3000C4F381129B5C8DF8023003AB185C8DF8D4
:104D40000400585C8DF80500985C8DF806006A46F2
:104D5000032140F2264001F063FB4FF0FF37E0BB38
:104D600001AA032140F22A4001F05AFBA8BBCDE979
:104D7000006560070BD59DF8000040F001008DF83C
:104D800000009DF8040040F001008DF80400A0062A
:104D90000BD59DF8010040F001008DF801009DF851
:104DA000050040F001008DF80500E0050BD59DF8E9
:104DB000020040F001008DF802009DF8060040F06E
:104DC00001008DF806006A4603214FF4886001F067
:104DD00027FB10B901AA032100E004E040F23140B2
:104DE00001F01EFB18B1384604B0BDE8F08106485A
:104DF00004810020F8E700004CCD6C000CC92C00A9
:104E00003656760026466600740200204FF47A7209
:104E100090FBF2F008B54843010E8DF80010010C2C
:104E20008DF80110010A8DF802108DF803006A4612
:104E300004214FF4AE7001F0F3FA08BD0521B0FB78
:104E4000F1F008B5010A8DF800108DF801006A46EE
:104E500002214FF4AD7001F0E3FA08BD0521B0FB6B
:104E6000F1F008B5010A8DF800108DF801006A46CE
:104E700002214FF4AC7001F0D3FA08BD08B500214F
:104E80008DF80010C10702D030218DF80010810785
:104E900005D59DF8001041F00C018DF80010400779
:104EA00005D59DF8000040F003008DF800006A462B
:104EB00001214FF4A47001F0B3FA08BD08B560B148
:104EC000042800D90420401E8DF800006A46012104
:104ED00040F24F1001F0A4FA08BD0120F3E70000F2
:104EE0002DE9FC41054640074FF0FF367CD0B1F577
:104EF000C86F79D8084602F021FA3E4902F008F955
:104F0000074601A800F0FCFC9DF80400022806D02A
:104F100004280DD008282ED0102865D134E00E21A9
:104F2000384602F0CCFB02F0D1F984B2324907E0F6
:104F30000D21384602F0C3FB02F0C8F92F4984B2B4
:104F4000384602F00FFA02F0C1F9210A8DF800107C
:104F500080B28DF80140010A8DF802108DF803002F
:104F6000E8076C4620D0224602214FF4EA7001F097
:104F700057FAC8BB11E00C21384602F0A0FB02F042
:104F8000A5F984B21E49DBE70B21384602F097FBF6
:104F900002F09CF984B21B49D2E7A21C02214FF413
:104FA000927001F03DFAF8B9A8070DD56A460221C2
:104FB0004FF4EC7001F034FAB0B9A21C02214FF4A6
:104FC000947001F02DFA78B9680710D56A4602216D
:104FD0004FF4EE7001F024FA30B9A21C02214FF414
:104FE000967001F01DFA10B13046BDE8FC8100203A
:104FF000FBE7000000004843000040460000C045B9
:10500000000040450000C0440521B0FBF1F008B5A8
:10501000010A8DF800108DF801006A4602214FF454
:10502000EF7001F0FDF908BD0521B0FBF1F008B506
:10503000010A8DF800108DF801006A4602214FF434
:10504000ED7001F0EDF908BD2DE9FC470546254856
:105050006B46042240680D210078FEF7A7F910B1D5
:105060000720BDE8FC879DF800001C2101EAD00262
:105070009DF80300DFF87090C0F301131A438DF818
:1050800004209DF80120C0F3810301EAD2021A43F3
:105090008DF805209DF8022000F0030001EAD201FE
:1050A00001430024114F8DF80610A04601AE305D7B
:1050B00010B145F8249009E045F824800CE055F83B
:1050C0002400394602F04EF945F82400305D401EB8
:1050D00010F0FF003055F2D1641CE4B2032CE6D38B
:1050E0000020BEE7480000207B14AE3E1D5A843FDE
:1050F0002DE9FE4F05460120C14E8DF800004FF00E
:1051000000088DF8018030680C461746817C706875
:105110006B4602220078FEF7D5F94FF0FF3A0028DF
:105120007AD1C820FCF7BCFB8DF8008030686B4654
:105130000122C17B70680078FEF7C4F90028EFD126
:1051400030686B460122417970680078FEF7BAF941
:105150000028E5D130686B460122817C70680078B8
:10516000FEF7B0F90028DBD130686B460122C17D23
:1051700070680078FEF7A6F90028D1D130686B4638
:105180000122017970680078FEF79CF90028C7D1E8
:105190004FF00C098DF8009030686B4601220179C0
:1051A00070680078FEF78EF9002835D10F20FCF7E3
:1051B00077FBB06A6B460122407A8DF800003068B8
:1051C000817870680078FEF77DF9002824D1B06AF4
:1051D0006B460122007A8DF80000306841787068D3
:1051E0000078FEF76FF9002873D1B06A807A0FB1AA
:1051F00040F0E0008DF8000030686B4601228179B4
:1052000070680078FEF75EF9002862D12FB1B06AAD
:10521000C07A40F0E00001E04AE018208DF800007C
:1052200030686B460122C17970680078FEF74AF950
:10523000F0BB17B1C820FCF733FB40208DF800000D
:1052400030686B460122017970680078FEF73AF900
:1052500070BB78208DF8000030686B4601224179E0
:1052600070680078FEF72EF910BB3220FCF718FBAF
:105270008DF80080306847466B464179706801229E
:105280000078FEF71FF998B931687068B046897ADE
:1052900000786B460222FEF789F848B9BDF8000095
:1052A000AF6040BAB0FBF9F06F60C6B22F6000E0AB
:1052B0000FE0A76067602760002739E0D8F800108A
:1052C000D8F804006B46C97A00780C22FEF76EF815
:1052D00010B15046BDE8FE8FBDF80000236840BA0B
:1052E00002B2BDF802001A4440BA01B2BDF804008F
:1052F0002260626840BA11446160A16800B208444B
:10530000A060BDF806002B6840BA02B2BDF80800E4
:105310001A4440BA01B2BDF80A002A606A6840BA6D
:1053200011446960A96800B208447F1CFFB2A860FC
:10533000B742C3D328688322C117090441EA104148
:1053400000040023FAF750FF32460023FAF74CFF1F
:10535000286068688322C117090441EA10410004EB
:105360000023FAF741FF32460023FAF73DFF686059
:10537000A8688322C117090441EA104100040023F0
:10538000FAF732FF32460023FAF72EFFA8602068B2
:105390004FF40065C117090441EA104100042A4690
:1053A0000023FAF721FF32460023FAF71DFF2060A1
:1053B00060682A46C117090441EA1041000400232D
:1053C000FAF712FF32460023FAF70EFF6060A0687A
:1053D0002A46C117090441EA104100040023FAF7E4
:1053E00003FF32460023FAF7FFFEA060002802DD2B
:1053F000A0F5803001E000F58030A060002069E772
:10540000480000202DE9F84F82462F4889460025A4
:1054100040686B46032200780D21FDF7C7FF10B1ED
:105420000720BDE8F88F9DF80000002400F01F0061
:105430008DF800009DF801006F4600F01F008DF808
:1054400001009DF802004FF0010800F01F008DF8E8
:1054500002005AF8241059F82400081A00D54042D6
:1054600001F054FF6FF00F0102F029F90646385D94
:10547000E0B1164ADFF858B004E05946104601F092
:1054800071FF0246385D401E10F0FF003855F4D120
:105490001146304601F03CFE4FF07E5102F038F8E4
:1054A0000C4920F00040884205DC07E00A483044FF
:1054B000B0F1D97F02D908FA04F00543641C032C2B
:1054C000C7DB2846ADE70000480000200000C841C7
:1054D00054E3853F295C0F3E0000E0BE00B5024664
:1054E00000F00DF80346D01C00F009F843EAC003B1
:1054F000901D00F004F843EA801080B200BD90F9DE
:105500000010002902DD4FF00000704702DA4FF072
:105510000400704790F90110002902DD4FF00100EE
:10552000704702DA4FF00500704790F9020000283A
:1055300002DD4FF00200704702DA4FF006007047BC
:105540004FF0070070470000FCF760FCFEF7F5F92C
:10555000FDF7E2FFFEF72CF8FEF74AF8FEF7A2F897
:10556000FEF7D4F8FEF708F9FEF73EF9FEF722F948
:10557000FDF7C4FE00F076F9002211461720FCF773
:10558000A3FC1720FCF792FC00212548FDF75CF9ED
:105590000C212348FDF758F93C212248FDF73CF83F
:1055A0003C212148FDF738F8012220492048FDF729
:1055B00045FB1E4C01200021E0600846FDF72EFE51
:1055C0001C4D4FF47A76334614221B491848FDF7D8
:1055D00044FB1AA118482269FAF72AFE0021102379
:1055E000154A0846FEF75CF918A11348A268FAF7B5
:1055F0001FFE1023104A02210020FEF751F92868EF
:1056000001F0F2FC02460B4614A10B48FAF710FE1B
:105610001023094A04210020FEF742F9D3E70000D5
:105620004801002090010020D80100200000002047
:1056300020020020BC000020E0000020456E636FC7
:105640006465725F4C3A256420202000456E636FCC
:105650006465725F523A256420202000726F6C6C82
:105660003A252E31662020200000000070470000FF
:105670002DE9F041134D20F00104002695F8240097
:1056800010B10020BDE8F081A87A4FF0FF3838B1A2
:1056900020402F7C2874A04200D0464624B901E067
:1056A0004046EFE7287D40B1012000F023FF3CB1E8
:1056B00000F07CFB20B12F74F2E7002000F01AFF0D
:1056C0003046DFE7480000202DE9F74F8EB00CA9E7
:1056D00006A8CDE900010BAB02AA09A907A8FFF7AC
:1056E00067F918B1012011B0BDE8F08FBDF81800BE
:1056F000C0057DD5029801F009FE6FF01D0421461A
:1057000001F0DDFF8146039801F000FE214601F023
:10571000D6FF8046049801F0F9FD214601F0CFFF45
:105720000646059801F0F2FD214601F0C8FF8246C9
:105730000121484601F0C3FF0746314601F012FE41
:1057400004464FF04041404601F00CFE05465146EC
:1057500001F008FE214601F073FC01F045FCFEF764
:10576000CFFC4FF0663B5A463D4B01F063F900F029
:1057700027FF0E9908600121304601F0A0FF314655
:10578000009001F0EFFD04462846414601F0EAFD95
:10579000214601F0BDFE4FF07E5101F051FC01F0B9
:1057A00023FC04460D463846414601F0DBFD074622
:1057B0005146009801F0D6FD394601F041FC01F058
:1057C00013FC22462B46FEF7E3FE5A46244B01F01B
:1057D00031F900F0F5FE0F9908605146084601F0D6
:1057E000C1FD07463146084601F0BCFD054600E014
:1057F00034E04146084601F0B5FD044649460846F6
:1058000001F0B0FD214601F01BFC294601F080FEAD
:10581000394601F07DFE01F0E7FB04460D46514696
:10582000484601F09FFD07463146404601F09AFD8B
:10583000394601F005FC012101F041FF01F0D4FBE4
:1058400022462B46FEF7A4FE5A46054B01F0F2F81D
:1058500000F0B6FE10990860002044E7022042E7FD
:1058600066A64C4010B5FDF7D3FB00F0EDF808B18B
:105870000A2010BD782000F077FD10F0FF0F01D056
:10588000012010BD7820FFF7F3FE10F0FF0F01D0CC
:10589000022010BD642000F02BFD10F0FF0F01D09E
:1058A000032010BDFFF77AF810F0FF0F01D004209D
:1058B00010BD1248FFF712FEFFF722FA10F0FF0F9B
:1058C00001D0052010BD40F27310FEF73FFF10F02D
:1058D000FF0F01D0062010BD6420FFF779F910F00A
:1058E000FF0F01D0072010BD00F0C4FD012000F023
:1058F00025FC10F0FF00F6D0092010BD7400002038
:105900000D4A517A41B1012908D002290FD003294B
:105910000FD04FF0FF307047022100E004210170EA
:10592000D17C11B101784900017000207047082135
:10593000F5E71021F3E70000480000200F4A517AF4
:1059400041B1012909D0022911D0032912D04FF009
:10595000FF3070474FF4804101E041F69C710180B7
:10596000D17C11B1018849080180002070474FF4B3
:105970008051F4E74FF40061F1E700004800002097
:105980000B49097A39B1012907D002290AD0032924
:105990000BD0002103E0FA2101E04FF4FA710180FD
:1059A000002070474FF47A71F9E74FF4FA61F6E797
:1059B000480000200A49097A41B1012908D002298A
:1059C0000AD003290AD04FF0FF307047054900E0A4
:1059D00005490160002070470449FAE70449F8E7E7
:1059E0004800002000000343000083423333034299
:1059F000333383410C49C97A072913D2DFE801F018
:105A00001204060A0C0E1000BC2100E06221018085
:105A1000002070472A21FAE71421F8E70A21F6E767
:105A20000521F4E70021F2E748000020054991F83C
:105A3000242012B14FF0FF307047C9890180002047
:105A400070470000480000202DE9FC41464C8020B2
:105A50008DF8000020686B460122817C6068007828
:105A6000FDF730FD4FF0FF36002875D16420FBF7BD
:105A700017FF00258DF8005020686B460122817CBD
:105A800060680078FDF71EFD002865D120686B4630
:105A90000622817D60680078FDF788FC00285BD1D4
:105AA0009DF805009DF80310C007400F01F00101AB
:105AB00040EA41009DF801104FF0010701F001019B
:105AC000084304D0012831D0022810D044E02068D7
:105AD0006B460122C17860680078FDF767FCD8BB8F
